{
    "contractName": "PriceConsumerV3",
    "abi": [
        {
            "inputs": [],
            "stateMutability": "nonpayable",
            "type": "constructor"
        },
        {
            "inputs": [],
            "name": "getLatestPrice",
            "outputs": [
                {
                    "internalType": "int256",
                    "name": "",
                    "type": "int256"
                }
            ],
            "stateMutability": "view",
            "type": "function"
        }
    ],
    "bytecode": "608060405234801561001057600080fd5b50600080546001600160a01b031916731b44f3514812d835eb1bdb0acb33d3fa3351ee43179055610168806100466000396000f3fe608060405234801561001057600080fd5b506004361061002b5760003560e01c80638e15f47314610030575b600080fd5b61003861004a565b60405190815260200160405180910390f35b6000805460408051633fabe5a360e21b8152905183926001600160a01b03169163feaf968c9160048083019260a09291908290030181865afa158015610094573d6000803e3d6000fd5b505050506040513d601f19601f820116820180604052508101906100b891906100e2565b509195945050505050565b805169ffffffffffffffffffff811681146100dd57600080fd5b919050565b600080600080600060a086880312156100fa57600080fd5b610103866100c3565b9450602086015193506040860151925060608601519150610126608087016100c3565b9050929550929590935056fea264697066735822122001004398ecee00d5ca22caa47a625e46d482030be55fa17507481f878907d5d664736f6c634300080a0033",
    "sourcePath": "c:/Users/ecoli/OneDrive/Documents/GitHub/nextjs-blog-cms-sanity-v3/contracts/PriceConsumerV3.sol",
    "compiler": {
        "name": "solc",
        "version": "0.8.10+commit.fc410830"
    },
    "functionHashes": {
        "getLatestPrice()": "8e15f473"
    },
    "gasEstimates": {
        "creation": {
            "codeDepositCost": "72000",
            "executionCost": "24359",
            "totalCost": "96359"
        },
        "external": {
            "getLatestPrice()": "infinite"
        }
    }
}